:040000000128F82FAC
:100E0E007C0803190D2F0130FC0208000930F20096
:100E1E007208FC007D08031908000130FD0208006D
:100E2E0021008E0107309500113022008E003C30DB
:100E3E0021008C000430F7007708FD000B1D252FD4
:100E4E000B116B27B527252FF301F4017808031931
:100E5E00332F0130F802452F0930F2007208F800E6
:100E6E00790803193D2F0130F902452F0530F200A4
:100E7E007208F9000130F3000030F4007408F1003C
:100E8E007308F000080070087104031908007A084E
:100E9E000319562F0130FA02F001F1010800093052
:100EAE00F2007208FA007B080319622F0130FB0270
:100EBE00F001F10108000530F2007208FB0001306C
:100ECE00F0000030F10008008C2770087104031D3B
:100EDE0008002B277108F6007008F50075087604D7
:100EEE00031908007608F1007508F0004A2771080A
:100EFE00F6007008F50075087604031908007608E8
:100F0E00F1007508F00007270800F301F401F30162
:100F1E00F4017408803AF20080307202031D992F9A
:100F2E00063073020318B02F78080319A12FF001B1
:100F3E00F10108000130F3070030F43D7408803AE7
:100F4E00F20080307202031DAE2F06307302031CB6
:100F5E009B2F0130F0000030F100080078082200CD
:100F6E008E008E120E120C100330F000F00BBD2FFF
:100F7E000032790822008E008E120E120C140330ED
:100F8E00F000F00BC82F00327A0822008E008E126D
:100F9E000E160C140330F000F00BD32F00327B082A
:100FAE0022008E008E120E160C100330F000F00B85
:100FBE00DE2F00327C0822008E008E160E160C10CC
:100FCE000330F000F00BE92F00327D0822008E0076
:100FDE008E160E160C140330F000F00BF42F0032A8
:100FEE000800F801F901FA01FB01FC01FD012000E6
:020FFE00172FAB
:020000040001F9
:04000E00E4F9FFDF33
:00000001FF
