:0400000080310D2816
:100008007E14803120007F08F0007008FF007E1009
:10001800090080310F28FC017E1020008531832DD6
:10002800013400340A34003464340034E8340334CE
:10003800103427344134733473346534723474346F
:1000480069346F346E3420346634613469346C3406
:10005800653464343A3420342534733420346C34B1
:1000680069346E3465342034253464343A342034A9
:1000780022342534733422340A3400347434653419
:100088007334743420346F346634203466346C34FA
:10009800613467345F346134723472346134793472
:1000A8005F346734653474345F3466346C34613477
:1000B80067345F34733474346134743465340A34A7
:1000C8000034743465347334743420346F346634D3
:1000D800203466346C34613467345F34613472348C
:1000E8007234613479345F347334653474345F3412
:1000F8006E3475346D3462346534723473340A3452
:100108000034743465347334743420346F34663492
:10011800203466346C34613467345F34613472344B
:100128007234613479345F3469346E3469347434C8
:10013800693461346C3469347A3465340A3400348F
:1001480066346C34613467345F34613472347234C9
:10015800613479345F346734653474345F346634B9
:100168006C34613467345F34733474346134743498
:10017800653420344B344F340A34003474346534D5
:100188007334743420346F346634203466346C34F9
:10019800613467345F346134723472346134793471
:1001A8005F347334653474345F3466346C3461346A
:1001B80067340A34003466346C34613467345F342D
:1001C800613472347234613479345F347334653431
:1001D80074345F346E3475346D346234653472341B
:1001E800733420344B344F340A34003466346C345E
:1001F800613467345F346134723472346134793411
:100208005F3469346E3469347434693461346C34FD
:1002180069347A34653420344B344F340A3400342A
:10022800743465347334743420346F346634203451
:1002380066346C34613467345F34613472347234D8
:10024800613479345F34763461346C3469346434BD
:100258000A340034743465347334743420346F349D
:1002680066342034743469346D3465345F347434DE
:100278007934703465345F34763461346C3469347D
:1002880064340A34003466346C34613467345F345F
:10029800613472347234613479345F347334653460
:1002A80074345F3466346C346134673420344B34CE
:1002B8004F340A34003466346C34613467345F3444
:1002C800613472347234613479345F347634613431
:1002D8006C346934643420344B344F340A34003479
:1002E80073346F34663474347734613472346534FB
:1002F8005F34743469346D34653472342E34633445
:10030800003466346C34613467345F346134723479
:1003180072346134793421343D342834303429340A
:10032800003466346C34613467345F346134723459
:100338007234613479342E34633400347334653460
:1003480063346F346E34643420344B344F340A349D
:1003580000346D3469346E34753474346534203443
:100368004B344F340A340034743469346D34653492
:10037800723421343D34283430342934003468341C
:100388006F347534723420344B344F340A340034AB
:1003980028346E3475346C346C3429340034253484
:1003A800643420344B344F340A340034263020006F
:1003B800AC002C08B20020002508AD002408AC00D1
:1003C800A40A0319A50A2C0884002D088500000832
:1003D800AE002E08B7003708031908002530370685
:1003E8000319FB293708853168258131DF29200069
:1003F800B001262A320886008701403FB300413FFA
:10040800B4000230AC002C08B20733083404031DD2
:10041800112ACC30B3008130B4003308840034088A
:10042800850012000319DF29330884003408850089
:10043800000885316825813101302000B30700307C
:10044800B43D112A2508AD002408AC00A40A0319FC
:10045800A50A2C0884002D0885000008B700003A7A
:100468000319BD2A643A0319402A0D3A0319402A90
:100478001A3A0319FE29DF29320886008701403F0E
:10048800B500413FB6000230AC002C08B207B61FD9
:10049800562A0330AC002C08B004B509B609B50AD1
:1004A8000319B60AB701B70A0530370603197B2ABC
:1004B8003708AC00AD01AC35AD0D14302C07840005
:1004C80080302D3D8500003FAE00013FAF002F0872
:1004D8003602031D712A2E083502031C7B2A0130BF
:1004E800AC002C08B70705303706031D5C2A300816
:1004F80003390319832A2D3085316825813120007D
:100508003708AC002C08B100FF302000AC002C08E4
:10051800B107310A0319DF290A30A0000030A10011
:100528003108AC00AD01AC35AD0D14302C0784009A
:1005380080302D3D8500003FF100013FF200360874
:10054800F4003508F30084315F24813172082000FB
:10055800A3007108A200843193248131200020086F
:10056800303EAE002E08B700370885316825813146
:10057800882A080085302000A4008030A500813139
:10058800DA218231423085315F258231423084312F
:10059800C024823120003E083F04031DDA2AFA30C5
:1005A800A4008030A5008131DA2182311430200086
:1005B800A4008130A5008131DA2182310A3020007F
:1005C800C1004108C30042308431C0248231200078
:1005D8003E083F04031DF72A5F30A4008130A500C0
:1005E8008131DA21823165302000A4008030A500F5
:1005F8008131DA21823104302000C1004108F10044
:1006080042308531562582310430200043060319D3
:10061800142BDF30A4008030A5008131DA2182312B
:10062800C2302000A4008030A5008131DA21823157
:10063800F401F501F50A423085313C25823120006C
:10064800C21C2D2B4730A4008130A5008131DA214E
:10065800823142302000A4008030A5008131DA21A7
:1006680082312000420C0139C100F401F40A423001
:100678008531492582312000410603190800A4303C
:10068800A4008030A5008131DA2108002E30200036
:10069800A4008130A5008131DA2183312000B8011E
:1006A800380885312F25833171087204031D642BA6
:1006B800A2302000A4008130A5008131DA218331E5
:1006C8002000B801B80A380885312F258331710810
:1006D8007204031D772BAD302000A4008130A500E3
:1006E8008131DA2183310230FB007B082000B80019
:1006F800380885312F25833171087204031D8C2B2E
:10070800C3302000A4008130A5008131DA21833173
:1007180003302000B9000030BA000330B9000030BF
:10072800BA003A08803AFB0080307B02031D9E2BFA
:1007380014303902031808002000390885312F25A4
:10074800833171037204031DB52BD3302000A4003C
:100758008130A5003A08A7003908A6008131DA21BE
:10076800833101302000B9070030BA3D952BF300E2
:10077800052C730886008701710801390110031DD3
:100788000114080073088600870171080139811077
:10079800031D811408007308860087017108013958
:1007A8000111031D011508007308860087017108EF
:1007B80001398111031D811508007308860087011E
:1007C800710801390112031D01160800730886001B
:1007D8008701710801398112031D81160800730809
:1007E80086008701710801390113031D01170800EC
:1007F800730886008701710801398113031D811769
:1008080008007208840008300402031808008531C3
:100818000435003E82000800F300F201532C7308EF
:1008280086008701003001180130F2005D2C730842
:1008380086008701003081180130F2005D2C7308B2
:1008480086008701003001190130F2005D2C730821
:1008580086008701003081190130F2005D2C730891
:10086800860087010030011A0130F2005D2C730800
:10087800860087010030811A0130F2005D2C730870
:10088800860087010030011B0130F2005D2C7308DF
:10089800860087010030811B0130F2005D2C710851
:1008A80084000830040203185D2C85310435103E9D
:1008B800820072080800F701F80171087204031930
:1008C8008E2CF601F60AF21B732C0130F135F20D6D
:1008D800890B6A2C0130F5007508F607672C013082
:1008E800F735F80D890B742C72087402031D7E2CE1
:1008F80071087302031C852C7108F3027208F43B1B
:1009080077140130F236F10C890B862C0130F6028F
:10091800031D732C7808F2007708F1000800200006
:10092800200821040319BB2CFA01FA0AA11BA62CE2
:100938000130A035A10D890B9D2C0130F9007908F3
:10094800FA079A2C21082302031DAC2C2008220246
:10095800031CB22C2008A2022108A33B0130A136B7
:10096800A00C890BB32C0130FA02031DA62C230816
:10097800A1002208A0000800FB007B08031DD42C5E
:1009880008302000B8000030B9009530BA00813036
:10099800BB008530BC008130BD008431E524843142
:1009A8007B0A8600870109300102031CDF2C200026
:1009B800BE01BF01080001302000BE000030BF00AA
:1009C80008001E302000A4008030A5003B08A700C6
:1009D8003A08A6003908A9003808A8003D08AB0065
:0E09E8003C08AA008131DA218431F92C080084
:100A00008331BD2B8331C62B8331CF2B8331D82B40
:100A10008331E12B8331EA2B8331F32B8331FC2BA0
:100A20008431132C84311B2C8431232C84312B2CC6
:100A30008431332C84313B2C8431432C84314B2C36
:100A4000F700770885317025F5007508F600740801
:100A5000F500760886008701750881000800F4001B
:100A6000033074020318392D0130F1000030F20018
:100A70000800F101F2010800F8007408F600760899
:100A8000F1007508F7007708F20078088331BB237E
:100A90000800F8007408F5007508F1007808843142
:100AA0001024F6007608F70077080800F3007108B4
:100AB000F200730A86008701720881000800F900BD
:100AC000790885317D25790A860087018101080032
:100AD000F1002000111E692D710823009A00080002
:100AE000F3007308F1007108F20072080800833106
:100AF0004A2385318231BE220800F800F4017808CB
:0E0B00008531202508008531772580310D28AC
:020000040001F9
:08000E00B8D733FFFFFFFFFF2D
:00000001FF
